{
  "contractName": "Stewards",
  "abi": [
    {
      "constant": true,
      "inputs": [
        {
          "name": "",
          "type": "address"
        }
      ],
      "name": "ipfsHashes",
      "outputs": [
        {
          "name": "",
          "type": "string"
        }
      ],
      "payable": false,
      "stateMutability": "view",
      "type": "function"
    },
    {
      "constant": true,
      "inputs": [
        {
          "name": "",
          "type": "uint256"
        }
      ],
      "name": "addresses",
      "outputs": [
        {
          "name": "",
          "type": "address"
        }
      ],
      "payable": false,
      "stateMutability": "view",
      "type": "function"
    },
    {
      "constant": true,
      "inputs": [],
      "name": "size",
      "outputs": [
        {
          "name": "",
          "type": "uint256"
        }
      ],
      "payable": false,
      "stateMutability": "view",
      "type": "function"
    },
    {
      "constant": false,
      "inputs": [
        {
          "name": "_ipfsHash",
          "type": "string"
        }
      ],
      "name": "set",
      "outputs": [],
      "payable": false,
      "stateMutability": "nonpayable",
      "type": "function"
    }
  ],
  "bytecode": "0x608060405234801561001057600080fd5b50610508806100206000396000f300608060405260043610610062576000357c0100000000000000000000000000000000000000000000000000000000900463ffffffff1680634ed3885e14610067578063949d225d146100d0578063e1e322ed146100fb578063edf26d9b146101b7575b600080fd5b34801561007357600080fd5b506100ce600480360381019080803590602001908201803590602001908080601f0160208091040260200160405190810160405280939291908181526020018383808284378201915050505050509192919290505050610224565b005b3480156100dc57600080fd5b506100e561033c565b6040518082815260200191505060405180910390f35b34801561010757600080fd5b5061013c600480360381019080803573ffffffffffffffffffffffffffffffffffffffff169060200190929190505050610349565b6040518080602001828103825283818151815260200191508051906020019080838360005b8381101561017c578082015181840152602081019050610161565b50505050905090810190601f1680156101a95780820380516001836020036101000a031916815260200191505b509250505060405180910390f35b3480156101c357600080fd5b506101e2600480360381019080803590602001909291905050506103f9565b604051808273ffffffffffffffffffffffffffffffffffffffff1673ffffffffffffffffffffffffffffffffffffffff16815260200191505060405180910390f35b60008060003373ffffffffffffffffffffffffffffffffffffffff1673ffffffffffffffffffffffffffffffffffffffff16815260200190815260200160002080546001816001161561010002031660029004905014156102e65760013390806001815401808255809150509060018203906000526020600020016000909192909190916101000a81548173ffffffffffffffffffffffffffffffffffffffff021916908373ffffffffffffffffffffffffffffffffffffffff160217905550505b806000803373ffffffffffffffffffffffffffffffffffffffff1673ffffffffffffffffffffffffffffffffffffffff1681526020019081526020016000209080519060200190610338929190610437565b5050565b6000600180549050905090565b60006020528060005260406000206000915090508054600181600116156101000203166002900480601f0160208091040260200160405190810160405280929190818152602001828054600181600116156101000203166002900480156103f15780601f106103c6576101008083540402835291602001916103f1565b820191906000526020600020905b8154815290600101906020018083116103d457829003601f168201915b505050505081565b60018181548110151561040857fe5b906000526020600020016000915054906101000a900473ffffffffffffffffffffffffffffffffffffffff1681565b828054600181600116156101000203166002900490600052602060002090601f016020900481019282601f1061047857805160ff19168380011785556104a6565b828001600101855582156104a6579182015b828111156104a557825182559160200191906001019061048a565b5b5090506104b391906104b7565b5090565b6104d991905b808211156104d55760008160009055506001016104bd565b5090565b905600a165627a7a72305820e4275c0437201ff60729c6f3c2e1514e6fd340fdefd95a1d93cf3824d9d2d91f0029",
  "source": "pragma solidity 0.4.24;\n\ncontract Stewards {\n\n  mapping (address => string) public ipfsHashes;\n  address[] public addresses;\n\n  function size() public view returns (uint) {\n      return addresses.length;\n  }\n\n  function set(string _ipfsHash) public {\n    if (bytes(ipfsHashes[msg.sender]).length == 0) {\n      addresses.push(msg.sender);\n    }\n    ipfsHashes[msg.sender] = _ipfsHash;\n  }\n}\n",
  "sourcePath": "/Users/rcurrie/code/cgt/org/contracts/Stewards.sol",
  "compiler": {
    "name": "solc",
    "version": "0.4.24+commit.e67f0147.Emscripten.clang"
  },
  "schemaVersion": "2.0.1",
  "updatedAt": "2018-10-13T21:09:47.869Z"
}